{
  "contractName": "LinkedList",
  "abi": [
    {
      "inputs": [],
      "payable": false,
      "stateMutability": "nonpayable",
      "type": "constructor"
    },
    {
      "anonymous": false,
      "inputs": [
        {
          "indexed": false,
          "internalType": "bytes32",
          "name": "head",
          "type": "bytes32"
        },
        {
          "indexed": false,
          "internalType": "uint256",
          "name": "number",
          "type": "uint256"
        },
        {
          "indexed": false,
          "internalType": "string",
          "name": "name",
          "type": "string"
        },
        {
          "indexed": false,
          "internalType": "bytes32",
          "name": "next",
          "type": "bytes32"
        }
      ],
      "name": "AddEntry",
      "type": "event"
    },
    {
      "constant": true,
      "inputs": [],
      "name": "head",
      "outputs": [
        {
          "internalType": "bytes32",
          "name": "",
          "type": "bytes32"
        }
      ],
      "payable": false,
      "stateMutability": "view",
      "type": "function"
    },
    {
      "constant": true,
      "inputs": [],
      "name": "length",
      "outputs": [
        {
          "internalType": "uint256",
          "name": "",
          "type": "uint256"
        }
      ],
      "payable": false,
      "stateMutability": "view",
      "type": "function"
    },
    {
      "constant": true,
      "inputs": [
        {
          "internalType": "bytes32",
          "name": "",
          "type": "bytes32"
        }
      ],
      "name": "objects",
      "outputs": [
        {
          "internalType": "bytes32",
          "name": "next",
          "type": "bytes32"
        },
        {
          "internalType": "uint256",
          "name": "number",
          "type": "uint256"
        },
        {
          "internalType": "string",
          "name": "name",
          "type": "string"
        }
      ],
      "payable": false,
      "stateMutability": "view",
      "type": "function"
    },
    {
      "constant": true,
      "inputs": [],
      "name": "writtenTotal",
      "outputs": [
        {
          "internalType": "uint256",
          "name": "",
          "type": "uint256"
        }
      ],
      "payable": false,
      "stateMutability": "view",
      "type": "function"
    },
    {
      "constant": false,
      "inputs": [
        {
          "internalType": "uint256",
          "name": "_number",
          "type": "uint256"
        },
        {
          "internalType": "string",
          "name": "_name",
          "type": "string"
        }
      ],
      "name": "addEntry",
      "outputs": [
        {
          "internalType": "bool",
          "name": "",
          "type": "bool"
        }
      ],
      "payable": false,
      "stateMutability": "nonpayable",
      "type": "function"
    },
    {
      "constant": false,
      "inputs": [
        {
          "internalType": "bytes32",
          "name": "_id",
          "type": "bytes32"
        }
      ],
      "name": "getEntry",
      "outputs": [
        {
          "internalType": "bytes32",
          "name": "",
          "type": "bytes32"
        },
        {
          "internalType": "uint256",
          "name": "",
          "type": "uint256"
        },
        {
          "internalType": "string",
          "name": "",
          "type": "string"
        }
      ],
      "payable": false,
      "stateMutability": "nonpayable",
      "type": "function"
    },
    {
      "constant": true,
      "inputs": [],
      "name": "total",
      "outputs": [
        {
          "internalType": "uint256",
          "name": "",
          "type": "uint256"
        }
      ],
      "payable": false,
      "stateMutability": "view",
      "type": "function"
    },
    {
      "constant": false,
      "inputs": [],
      "name": "setTotal",
      "outputs": [
        {
          "internalType": "bool",
          "name": "",
          "type": "bool"
        }
      ],
      "payable": false,
      "stateMutability": "nonpayable",
      "type": "function"
    },
    {
      "constant": false,
      "inputs": [],
      "name": "resetTotal",
      "outputs": [
        {
          "internalType": "bool",
          "name": "",
          "type": "bool"
        }
      ],
      "payable": false,
      "stateMutability": "nonpayable",
      "type": "function"
    }
  ],
  "bytecode": "0x60806040526000805534801561001457600080fd5b5061005b606f6040518060400160405280600481526020017f746573740000000000000000000000000000000000000000000000000000000081525061006160201b60201c565b506102f2565b600061006b610229565b60405180606001604052806001548152602001858152602001848152509050600081604001516040516020018082805190602001908083835b602083106100c757805182526020820191506020810190506020830392506100a4565b6001836020036101000a03801982511681845116808217855250505050505090500191505060405160208183030381529060405280519060200120905081600260008381526020019081526020016000206000820151816000015560208201518160010155604082015181600201908051906020019061014892919061024d565b50905050806001819055506001600054016000819055507f1a81da7e4ba18a1e8e95b7adf8303d1826226af67c4a3f5a595c8bfa23b5e4fc6001548360200151846040015185600001516040518085815260200184815260200180602001838152602001828103825284818151815260200191508051906020019080838360005b838110156101e45780820151818401526020810190506101c9565b50505050905090810190601f1680156102115780820380516001836020036101000a031916815260200191505b509550505050505060405180910390a1505092915050565b60405180606001604052806000801916815260200160008152602001606081525090565b828054600181600116156101000203166002900490600052602060002090601f016020900481019282601f1061028e57805160ff19168380011785556102bc565b828001600101855582156102bc579182015b828111156102bb5782518255916020019190600101906102a0565b5b5090506102c991906102cd565b5090565b6102ef91905b808211156102eb5760008160009055506001016102d3565b5090565b90565b6108a7806103016000396000f3fe608060405234801561001057600080fd5b50600436106100935760003560e01c80639a5e4eb4116100665780639a5e4eb414610114578063af9d1864146101c9578063b4b27a56146101e7578063c3fdf0861461029c578063f2334c66146102be57610093565b80631f7b6d32146100985780632ddbd13a146100b65780638ce85c49146100d45780638f7dcfa3146100f6575b600080fd5b6100a061039b565b6040518082815260200191505060405180910390f35b6100be6103a1565b6040518082815260200191505060405180910390f35b6100dc6103fa565b604051808215151515815260200191505060405180910390f35b6100fe610411565b6040518082815260200191505060405180910390f35b6101406004803603602081101561012a57600080fd5b8101908080359060200190929190505050610417565b6040518084815260200183815260200180602001828103825283818151815260200191508051906020019080838360005b8381101561018c578082015181840152602081019050610171565b50505050905090810190601f1680156101b95780820380516001836020036101000a031916815260200191505b5094505050505060405180910390f35b6101d1610509565b6040518082815260200191505060405180910390f35b610213600480360360208110156101fd57600080fd5b810190808035906020019092919050505061050f565b6040518084815260200183815260200180602001828103825283818151815260200191508051906020019080838360005b8381101561025f578082015181840152602081019050610244565b50505050905090810190601f16801561028c5780820380516001836020036101000a031916815260200191505b5094505050505060405180910390f35b6102a46105d1565b604051808215151515815260200191505060405180910390f35b610381600480360360408110156102d457600080fd5b8101908080359060200190929190803590602001906401000000008111156102fb57600080fd5b82018360208201111561030d57600080fd5b8035906020019184600183028401116401000000008311171561032f57600080fd5b91908080601f016020809104026020016040519081016040528093929190818152602001838380828437600081840152601f19601f8201169050808301925050505050505091929192905050506105e1565b604051808215151515815260200191505060405180910390f35b60005481565b600080600154905060008090505b6000801b82146103f257600260008381526020019081526020016000206001015481019050600260008381526020019081526020016000206000015491506103af565b809250505090565b60006104046103a1565b6003819055506001905090565b60015481565b60008060606002600085815260200190815260200160002060000154600260008681526020019081526020016000206001015460026000878152602001908152602001600020600201808054600181600116156101000203166002900480601f0160208091040260200160405190810160405280929190818152602001828054600181600116156101000203166002900480156104f55780601f106104ca576101008083540402835291602001916104f5565b820191906000526020600020905b8154815290600101906020018083116104d857829003601f168201915b505050505090509250925092509193909250565b60035481565b6002602052806000526040600020600091509050806000015490806001015490806002018054600181600116156101000203166002900480601f0160208091040260200160405190810160405280929190818152602001828054600181600116156101000203166002900480156105c75780601f1061059c576101008083540402835291602001916105c7565b820191906000526020600020905b8154815290600101906020018083116105aa57829003601f168201915b5050505050905083565b6000806003819055506001905090565b60006105eb6107a9565b60405180606001604052806001548152602001858152602001848152509050600081604001516040516020018082805190602001908083835b602083106106475780518252602082019150602081019050602083039250610624565b6001836020036101000a0380198251168184511680821785525050505050509050019150506040516020818303038152906040528051906020012090508160026000838152602001908152602001600020600082015181600001556020820151816001015560408201518160020190805190602001906106c89291906107cd565b50905050806001819055506001600054016000819055507f1a81da7e4ba18a1e8e95b7adf8303d1826226af67c4a3f5a595c8bfa23b5e4fc6001548360200151846040015185600001516040518085815260200184815260200180602001838152602001828103825284818151815260200191508051906020019080838360005b83811015610764578082015181840152602081019050610749565b50505050905090810190601f1680156107915780820380516001836020036101000a031916815260200191505b509550505050505060405180910390a1505092915050565b60405180606001604052806000801916815260200160008152602001606081525090565b828054600181600116156101000203166002900490600052602060002090601f016020900481019282601f1061080e57805160ff191683800117855561083c565b8280016001018555821561083c579182015b8281111561083b578251825591602001919060010190610820565b5b509050610849919061084d565b5090565b61086f91905b8082111561086b576000816000905550600101610853565b5090565b9056fea265627a7a72315820faeeff97b3ca38e2743b4864d66aaedd78e17c793b6389bcbb0c7b3befc6b05364736f6c634300050c0032",
  "source": "\npragma solidity 0.5.12;\n\ncontract LinkedList {\n\n    event AddEntry(bytes32 head,uint number, string name,bytes32 next);\n\n    uint public length = 0;//also used as nonce\n\n    struct Object{\n        bytes32 next;\n        uint number;\n        string name;\n    }\n\n    bytes32 public head;\n    mapping (bytes32 => Object) public objects;\n\n    constructor() public {\n        addEntry(111, \"test\");\n    }\n\n    function addEntry(uint _number, string memory _name) public returns (bool){\n        Object memory object = Object(head,_number,_name);\n        bytes32 id = keccak256(abi.encodePacked(object.name));\n        objects[id] = object;\n        head = id;\n        length = length+1;\n        emit AddEntry(head,object.number,object.name,object.next);\n    }\n\n    //needed for external contract access to struct\n    function getEntry(bytes32 _id) public returns (bytes32,uint,string memory){\n        return (objects[_id].next,objects[_id].number,objects[_id].name);\n    }\n\n    //------------------ totalling stuff to explore list mechanics \n\n    function total() public view returns (uint) {\n        bytes32 current = head;\n        uint totalCount = 0;\n        while( current != 0 ){\n            totalCount = totalCount + objects[current].number;\n            current = objects[current].next;\n        }\n        return totalCount;\n    }\n\n    function setTotal() public returns (bool) {\n        writtenTotal = total();\n        return true;\n    }\n\n    function resetTotal() public returns (bool) {\n        writtenTotal = 0;\n        return true;\n    }\n\n    uint public writtenTotal;\n}",
  "sourcePath": "/Users/yge/repo/smart-contract-resource-sharing/linked_list/contracts/linked_list.sol",
  "compiler": {
    "name": "solc",
    "version": "0.5.12+commit.7709ece9.Emscripten.clang"
  },
  "schemaVersion": "3.0.20",
  "updatedAt": "2020-01-03T05:26:59.627Z",
  "networkType": "ethereum",
  "devdoc": {
    "methods": {}
  },
  "userdoc": {
    "methods": {}
  }
}