{
  "contractName": "LinkedList",
  "abi": [
    {
      "inputs": [],
      "payable": false,
      "stateMutability": "nonpayable",
      "type": "constructor"
    },
    {
      "anonymous": false,
      "inputs": [
        {
          "indexed": false,
          "internalType": "bytes32",
          "name": "head",
          "type": "bytes32"
        },
        {
          "indexed": false,
          "internalType": "uint256",
          "name": "number",
          "type": "uint256"
        },
        {
          "indexed": false,
          "internalType": "string",
          "name": "name",
          "type": "string"
        },
        {
          "indexed": false,
          "internalType": "bytes32",
          "name": "next",
          "type": "bytes32"
        }
      ],
      "name": "AddEntry",
      "type": "event"
    },
    {
      "constant": true,
      "inputs": [],
      "name": "head",
      "outputs": [
        {
          "internalType": "bytes32",
          "name": "",
          "type": "bytes32"
        }
      ],
      "payable": false,
      "stateMutability": "view",
      "type": "function"
    },
    {
      "constant": true,
      "inputs": [],
      "name": "length",
      "outputs": [
        {
          "internalType": "uint256",
          "name": "",
          "type": "uint256"
        }
      ],
      "payable": false,
      "stateMutability": "view",
      "type": "function"
    },
    {
      "constant": true,
      "inputs": [
        {
          "internalType": "bytes32",
          "name": "",
          "type": "bytes32"
        }
      ],
      "name": "objects",
      "outputs": [
        {
          "internalType": "bytes32",
          "name": "next",
          "type": "bytes32"
        },
        {
          "internalType": "uint256",
          "name": "number",
          "type": "uint256"
        },
        {
          "internalType": "string",
          "name": "name",
          "type": "string"
        }
      ],
      "payable": false,
      "stateMutability": "view",
      "type": "function"
    },
    {
      "constant": true,
      "inputs": [],
      "name": "writtenTotal",
      "outputs": [
        {
          "internalType": "uint256",
          "name": "",
          "type": "uint256"
        }
      ],
      "payable": false,
      "stateMutability": "view",
      "type": "function"
    },
    {
      "constant": false,
      "inputs": [
        {
          "internalType": "uint256",
          "name": "_number",
          "type": "uint256"
        },
        {
          "internalType": "string",
          "name": "_name",
          "type": "string"
        }
      ],
      "name": "addEntry",
      "outputs": [
        {
          "internalType": "bool",
          "name": "",
          "type": "bool"
        }
      ],
      "payable": false,
      "stateMutability": "nonpayable",
      "type": "function"
    },
    {
      "constant": false,
      "inputs": [],
      "name": "getHead",
      "outputs": [
        {
          "internalType": "bytes32",
          "name": "",
          "type": "bytes32"
        }
      ],
      "payable": false,
      "stateMutability": "nonpayable",
      "type": "function"
    },
    {
      "constant": false,
      "inputs": [
        {
          "internalType": "bytes32",
          "name": "_id",
          "type": "bytes32"
        }
      ],
      "name": "getName",
      "outputs": [
        {
          "internalType": "string",
          "name": "",
          "type": "string"
        }
      ],
      "payable": false,
      "stateMutability": "nonpayable",
      "type": "function"
    },
    {
      "constant": false,
      "inputs": [
        {
          "internalType": "bytes32",
          "name": "_id",
          "type": "bytes32"
        }
      ],
      "name": "getEntry",
      "outputs": [
        {
          "internalType": "bytes32",
          "name": "",
          "type": "bytes32"
        },
        {
          "internalType": "uint256",
          "name": "",
          "type": "uint256"
        },
        {
          "internalType": "string",
          "name": "",
          "type": "string"
        }
      ],
      "payable": false,
      "stateMutability": "nonpayable",
      "type": "function"
    },
    {
      "constant": true,
      "inputs": [],
      "name": "total",
      "outputs": [
        {
          "internalType": "uint256",
          "name": "",
          "type": "uint256"
        }
      ],
      "payable": false,
      "stateMutability": "view",
      "type": "function"
    },
    {
      "constant": false,
      "inputs": [],
      "name": "setTotal",
      "outputs": [
        {
          "internalType": "bool",
          "name": "",
          "type": "bool"
        }
      ],
      "payable": false,
      "stateMutability": "nonpayable",
      "type": "function"
    },
    {
      "constant": false,
      "inputs": [],
      "name": "resetTotal",
      "outputs": [
        {
          "internalType": "bool",
          "name": "",
          "type": "bool"
        }
      ],
      "payable": false,
      "stateMutability": "nonpayable",
      "type": "function"
    }
  ],
  "bytecode": "0x60806040526000805534801561001457600080fd5b5061005b606f6040518060400160405280600481526020017f746573740000000000000000000000000000000000000000000000000000000081525061006160201b60201c565b506102f2565b600061006b610229565b60405180606001604052806001548152602001858152602001848152509050600081604001516040516020018082805190602001908083835b602083106100c757805182526020820191506020810190506020830392506100a4565b6001836020036101000a03801982511681845116808217855250505050505090500191505060405160208183030381529060405280519060200120905081600260008381526020019081526020016000206000820151816000015560208201518160010155604082015181600201908051906020019061014892919061024d565b50905050806001819055506001600054016000819055507f1a81da7e4ba18a1e8e95b7adf8303d1826226af67c4a3f5a595c8bfa23b5e4fc6001548360200151846040015185600001516040518085815260200184815260200180602001838152602001828103825284818151815260200191508051906020019080838360005b838110156101e45780820151818401526020810190506101c9565b50505050905090810190601f1680156102115780820380516001836020036101000a031916815260200191505b509550505050505060405180910390a1505092915050565b60405180606001604052806000801916815260200160008152602001606081525090565b828054600181600116156101000203166002900490600052602060002090601f016020900481019282601f1061028e57805160ff19168380011785556102bc565b828001600101855582156102bc579182015b828111156102bb5782518255916020019190600101906102a0565b5b5090506102c991906102cd565b5090565b6102ef91905b808211156102eb5760008160009055506001016102d3565b5090565b90565b610a44806103016000396000f3fe608060405234801561001057600080fd5b50600436106100a95760003560e01c80639a5e4eb4116100715780639a5e4eb4146101d1578063af9d186414610286578063b4b27a56146102a4578063c3fdf08614610359578063dc281aff1461037b578063f2334c6614610399576100a9565b80631f7b6d32146100ae5780632ddbd13a146100cc57806354b8d5e3146100ea5780638ce85c49146101915780638f7dcfa3146101b3575b600080fd5b6100b6610476565b6040518082815260200191505060405180910390f35b6100d461047c565b6040518082815260200191505060405180910390f35b6101166004803603602081101561010057600080fd5b81019080803590602001909291905050506104d5565b6040518080602001828103825283818151815260200191508051906020019080838360005b8381101561015657808201518184015260208101905061013b565b50505050905090810190601f1680156101835780820380516001836020036101000a031916815260200191505b509250505060405180910390f35b61019961058d565b604051808215151515815260200191505060405180910390f35b6101bb6105a4565b6040518082815260200191505060405180910390f35b6101fd600480360360208110156101e757600080fd5b81019080803590602001909291905050506105aa565b6040518084815260200183815260200180602001828103825283818151815260200191508051906020019080838360005b8381101561024957808201518184015260208101905061022e565b50505050905090810190601f1680156102765780820380516001836020036101000a031916815260200191505b5094505050505060405180910390f35b61028e61069c565b6040518082815260200191505060405180910390f35b6102d0600480360360208110156102ba57600080fd5b81019080803590602001909291905050506106a2565b6040518084815260200183815260200180602001828103825283818151815260200191508051906020019080838360005b8381101561031c578082015181840152602081019050610301565b50505050905090810190601f1680156103495780820380516001836020036101000a031916815260200191505b5094505050505060405180910390f35b610361610764565b604051808215151515815260200191505060405180910390f35b610383610774565b6040518082815260200191505060405180910390f35b61045c600480360360408110156103af57600080fd5b8101908080359060200190929190803590602001906401000000008111156103d657600080fd5b8201836020820111156103e857600080fd5b8035906020019184600183028401116401000000008311171561040a57600080fd5b91908080601f016020809104026020016040519081016040528093929190818152602001838380828437600081840152601f19601f82011690508083019250505050505050919291929050505061077e565b604051808215151515815260200191505060405180910390f35b60005481565b600080600154905060008090505b6000801b82146104cd576002600083815260200190815260200160002060010154810190506002600083815260200190815260200160002060000154915061048a565b809250505090565b6060600260008381526020019081526020016000206002018054600181600116156101000203166002900480601f0160208091040260200160405190810160405280929190818152602001828054600181600116156101000203166002900480156105815780601f1061055657610100808354040283529160200191610581565b820191906000526020600020905b81548152906001019060200180831161056457829003601f168201915b50505050509050919050565b600061059761047c565b6003819055506001905090565b60015481565b60008060606002600085815260200190815260200160002060000154600260008681526020019081526020016000206001015460026000878152602001908152602001600020600201808054600181600116156101000203166002900480601f0160208091040260200160405190810160405280929190818152602001828054600181600116156101000203166002900480156106885780601f1061065d57610100808354040283529160200191610688565b820191906000526020600020905b81548152906001019060200180831161066b57829003601f168201915b505050505090509250925092509193909250565b60035481565b6002602052806000526040600020600091509050806000015490806001015490806002018054600181600116156101000203166002900480601f01602080910402602001604051908101604052809291908181526020018280546001816001161561010002031660029004801561075a5780601f1061072f5761010080835404028352916020019161075a565b820191906000526020600020905b81548152906001019060200180831161073d57829003601f168201915b5050505050905083565b6000806003819055506001905090565b6000600154905090565b6000610788610946565b60405180606001604052806001548152602001858152602001848152509050600081604001516040516020018082805190602001908083835b602083106107e457805182526020820191506020810190506020830392506107c1565b6001836020036101000a03801982511681845116808217855250505050505090500191505060405160208183030381529060405280519060200120905081600260008381526020019081526020016000206000820151816000015560208201518160010155604082015181600201908051906020019061086592919061096a565b50905050806001819055506001600054016000819055507f1a81da7e4ba18a1e8e95b7adf8303d1826226af67c4a3f5a595c8bfa23b5e4fc6001548360200151846040015185600001516040518085815260200184815260200180602001838152602001828103825284818151815260200191508051906020019080838360005b838110156109015780820151818401526020810190506108e6565b50505050905090810190601f16801561092e5780820380516001836020036101000a031916815260200191505b509550505050505060405180910390a1505092915050565b60405180606001604052806000801916815260200160008152602001606081525090565b828054600181600116156101000203166002900490600052602060002090601f016020900481019282601f106109ab57805160ff19168380011785556109d9565b828001600101855582156109d9579182015b828111156109d85782518255916020019190600101906109bd565b5b5090506109e691906109ea565b5090565b610a0c91905b80821115610a085760008160009055506001016109f0565b5090565b9056fea265627a7a723158201bd09f66764adb35d2a86841f3dd024aa68e7eea86df4ce0e9ec1f9e183202d764736f6c634300050c0032",
  "source": "pragma solidity 0.5.12;\n\ncontract LinkedList {\n    event AddEntry(bytes32 head,uint number, string name,bytes32 next);\n\n    uint public length = 0;//also used as nonce\n\n    struct Object{\n        bytes32 next;\n        uint number;\n        string name;\n    }\n\n    bytes32 public head;\n    mapping (bytes32 => Object) public objects;\n\n    constructor() public {\n        addEntry(111, \"test\");\n    }\n\n    function addEntry(uint _number, string memory _name) public returns (bool){\n        Object memory object = Object(head,_number,_name);\n        bytes32 id = keccak256(abi.encodePacked(object.name));\n        objects[id] = object;\n        head = id;\n        length = length+1;\n        emit AddEntry(head,object.number,object.name,object.next);\n    }\n\n    function getHead() public returns (bytes32) {\n        return head;\n    }\n\n    function getName(bytes32 _id) public returns (string memory) {\n        return objects[_id].name;\n    }\n\n    //needed for external contract access to struct\n    function getEntry(bytes32 _id) public returns (bytes32,uint,string memory){\n        return (objects[_id].next,objects[_id].number,objects[_id].name);\n    }\n\n    //------------------ totalling stuff to explore list mechanics \n\n    function total() public view returns (uint) {\n        bytes32 current = head;\n        uint totalCount = 0;\n        while( current != 0 ){\n            totalCount = totalCount + objects[current].number;\n            current = objects[current].next;\n        }\n        return totalCount;\n    }\n\n    function setTotal() public returns (bool) {\n        writtenTotal = total();\n        return true;\n    }\n\n    function resetTotal() public returns (bool) {\n        writtenTotal = 0;\n        return true;\n    }\n\n    uint public writtenTotal;\n}",
  "sourcePath": "/Users/charlesge/charles/git/smart-contract-resource-sharing/contracts/linked_list.sol",
  "compiler": {
    "name": "solc",
    "version": "0.5.12+commit.7709ece9.Emscripten.clang"
  },
  "schemaVersion": "3.0.20",
  "updatedAt": "2020-01-03T14:01:37.233Z",
  "devdoc": {
    "methods": {}
  },
  "userdoc": {
    "methods": {}
  }
}