{
  "contractName": "ResourceSharing",
  "abi": [
    {
      "inputs": [],
      "payable": false,
      "stateMutability": "nonpayable",
      "type": "constructor"
    },
    {
      "anonymous": false,
      "inputs": [
        {
          "indexed": false,
          "internalType": "bytes32",
          "name": "id",
          "type": "bytes32"
        },
        {
          "indexed": false,
          "internalType": "bytes32",
          "name": "next",
          "type": "bytes32"
        },
        {
          "indexed": false,
          "internalType": "string",
          "name": "_name",
          "type": "string"
        },
        {
          "indexed": false,
          "internalType": "string",
          "name": "_city",
          "type": "string"
        },
        {
          "indexed": false,
          "internalType": "address",
          "name": "_addr",
          "type": "address"
        },
        {
          "indexed": false,
          "internalType": "uint256",
          "name": "_target",
          "type": "uint256"
        },
        {
          "indexed": false,
          "internalType": "uint256",
          "name": "_start",
          "type": "uint256"
        },
        {
          "indexed": false,
          "internalType": "uint256",
          "name": "_end",
          "type": "uint256"
        }
      ],
      "name": "AddProvider",
      "type": "event"
    },
    {
      "anonymous": false,
      "inputs": [
        {
          "indexed": false,
          "internalType": "string",
          "name": "",
          "type": "string"
        },
        {
          "indexed": false,
          "internalType": "address",
          "name": "",
          "type": "address"
        }
      ],
      "name": "LogAddress",
      "type": "event"
    },
    {
      "anonymous": false,
      "inputs": [
        {
          "indexed": false,
          "internalType": "string",
          "name": "",
          "type": "string"
        },
        {
          "indexed": false,
          "internalType": "bool",
          "name": "",
          "type": "bool"
        }
      ],
      "name": "LogBool",
      "type": "event"
    },
    {
      "anonymous": false,
      "inputs": [
        {
          "indexed": false,
          "internalType": "string",
          "name": "",
          "type": "string"
        },
        {
          "indexed": false,
          "internalType": "bytes",
          "name": "",
          "type": "bytes"
        }
      ],
      "name": "LogBytes",
      "type": "event"
    },
    {
      "anonymous": false,
      "inputs": [
        {
          "indexed": false,
          "internalType": "string",
          "name": "",
          "type": "string"
        },
        {
          "indexed": false,
          "internalType": "bytes32",
          "name": "",
          "type": "bytes32"
        }
      ],
      "name": "LogBytes32",
      "type": "event"
    },
    {
      "anonymous": false,
      "inputs": [
        {
          "indexed": false,
          "internalType": "string",
          "name": "",
          "type": "string"
        },
        {
          "indexed": false,
          "internalType": "int256",
          "name": "",
          "type": "int256"
        }
      ],
      "name": "LogInt",
      "type": "event"
    },
    {
      "anonymous": false,
      "inputs": [
        {
          "indexed": false,
          "internalType": "string",
          "name": "",
          "type": "string"
        }
      ],
      "name": "LogMsg",
      "type": "event"
    },
    {
      "anonymous": false,
      "inputs": [
        {
          "indexed": false,
          "internalType": "string",
          "name": "",
          "type": "string"
        },
        {
          "indexed": false,
          "internalType": "string",
          "name": "",
          "type": "string"
        },
        {
          "indexed": false,
          "internalType": "string",
          "name": "",
          "type": "string"
        },
        {
          "indexed": false,
          "internalType": "uint256",
          "name": "",
          "type": "uint256"
        },
        {
          "indexed": false,
          "internalType": "uint256",
          "name": "",
          "type": "uint256"
        }
      ],
      "name": "LogProvider",
      "type": "event"
    },
    {
      "anonymous": false,
      "inputs": [
        {
          "indexed": false,
          "internalType": "string",
          "name": "",
          "type": "string"
        },
        {
          "indexed": false,
          "internalType": "string",
          "name": "",
          "type": "string"
        }
      ],
      "name": "LogString",
      "type": "event"
    },
    {
      "anonymous": false,
      "inputs": [
        {
          "indexed": false,
          "internalType": "string",
          "name": "",
          "type": "string"
        },
        {
          "indexed": false,
          "internalType": "uint256",
          "name": "",
          "type": "uint256"
        }
      ],
      "name": "LogUint",
      "type": "event"
    },
    {
      "anonymous": false,
      "inputs": [
        {
          "indexed": false,
          "internalType": "string",
          "name": "providerName",
          "type": "string"
        },
        {
          "indexed": false,
          "internalType": "address",
          "name": "providerAddr",
          "type": "address"
        },
        {
          "indexed": false,
          "internalType": "string",
          "name": "consumerName",
          "type": "string"
        },
        {
          "indexed": false,
          "internalType": "address",
          "name": "consumerAddr",
          "type": "address"
        },
        {
          "indexed": false,
          "internalType": "string",
          "name": "_city",
          "type": "string"
        },
        {
          "indexed": false,
          "internalType": "uint256",
          "name": "price",
          "type": "uint256"
        },
        {
          "indexed": false,
          "internalType": "uint256",
          "name": "time",
          "type": "uint256"
        },
        {
          "indexed": false,
          "internalType": "uint256",
          "name": "start",
          "type": "uint256"
        },
        {
          "indexed": false,
          "internalType": "uint256",
          "name": "duration",
          "type": "uint256"
        }
      ],
      "name": "Matched",
      "type": "event"
    },
    {
      "constant": true,
      "inputs": [
        {
          "internalType": "string",
          "name": "",
          "type": "string"
        }
      ],
      "name": "headList",
      "outputs": [
        {
          "internalType": "bytes32",
          "name": "",
          "type": "bytes32"
        }
      ],
      "payable": false,
      "stateMutability": "view",
      "type": "function"
    },
    {
      "constant": true,
      "inputs": [
        {
          "internalType": "address",
          "name": "",
          "type": "address"
        },
        {
          "internalType": "uint256",
          "name": "",
          "type": "uint256"
        }
      ],
      "name": "matchings",
      "outputs": [
        {
          "internalType": "string",
          "name": "providerName",
          "type": "string"
        },
        {
          "internalType": "address",
          "name": "providerAddr",
          "type": "address"
        },
        {
          "internalType": "string",
          "name": "consumerName",
          "type": "string"
        },
        {
          "internalType": "address",
          "name": "consumerAddr",
          "type": "address"
        },
        {
          "internalType": "string",
          "name": "city",
          "type": "string"
        },
        {
          "internalType": "uint256",
          "name": "price",
          "type": "uint256"
        },
        {
          "internalType": "uint256",
          "name": "matchedTime",
          "type": "uint256"
        },
        {
          "internalType": "uint256",
          "name": "start",
          "type": "uint256"
        },
        {
          "internalType": "uint256",
          "name": "duration",
          "type": "uint256"
        }
      ],
      "payable": false,
      "stateMutability": "view",
      "type": "function"
    },
    {
      "constant": true,
      "inputs": [],
      "name": "maxMatchInterval",
      "outputs": [
        {
          "internalType": "uint256",
          "name": "",
          "type": "uint256"
        }
      ],
      "payable": false,
      "stateMutability": "view",
      "type": "function"
    },
    {
      "constant": true,
      "inputs": [
        {
          "internalType": "bytes32",
          "name": "",
          "type": "bytes32"
        }
      ],
      "name": "providerList",
      "outputs": [
        {
          "internalType": "bytes32",
          "name": "id",
          "type": "bytes32"
        },
        {
          "internalType": "bytes32",
          "name": "next",
          "type": "bytes32"
        },
        {
          "internalType": "string",
          "name": "name",
          "type": "string"
        },
        {
          "internalType": "string",
          "name": "city",
          "type": "string"
        },
        {
          "internalType": "address",
          "name": "addr",
          "type": "address"
        },
        {
          "internalType": "uint256",
          "name": "target",
          "type": "uint256"
        },
        {
          "internalType": "uint256",
          "name": "start",
          "type": "uint256"
        },
        {
          "internalType": "uint256",
          "name": "end",
          "type": "uint256"
        }
      ],
      "payable": false,
      "stateMutability": "view",
      "type": "function"
    },
    {
      "constant": false,
      "inputs": [
        {
          "internalType": "string",
          "name": "_city",
          "type": "string"
        }
      ],
      "name": "reset",
      "outputs": [],
      "payable": false,
      "stateMutability": "nonpayable",
      "type": "function"
    },
    {
      "constant": false,
      "inputs": [
        {
          "internalType": "string",
          "name": "_name",
          "type": "string"
        },
        {
          "internalType": "string",
          "name": "_city",
          "type": "string"
        },
        {
          "internalType": "uint256",
          "name": "_target",
          "type": "uint256"
        },
        {
          "internalType": "uint256",
          "name": "_start",
          "type": "uint256"
        },
        {
          "internalType": "uint256",
          "name": "_end",
          "type": "uint256"
        }
      ],
      "name": "addProvider",
      "outputs": [
        {
          "internalType": "bool",
          "name": "",
          "type": "bool"
        }
      ],
      "payable": false,
      "stateMutability": "nonpayable",
      "type": "function"
    },
    {
      "constant": false,
      "inputs": [
        {
          "internalType": "string",
          "name": "_name",
          "type": "string"
        },
        {
          "internalType": "string",
          "name": "_city",
          "type": "string"
        },
        {
          "internalType": "uint256",
          "name": "_budget",
          "type": "uint256"
        },
        {
          "internalType": "uint256",
          "name": "_duration",
          "type": "uint256"
        },
        {
          "internalType": "uint256",
          "name": "_deadline",
          "type": "uint256"
        }
      ],
      "name": "addConsumer",
      "outputs": [
        {
          "internalType": "bool",
          "name": "",
          "type": "bool"
        }
      ],
      "payable": false,
      "stateMutability": "nonpayable",
      "type": "function"
    },
    {
      "constant": false,
      "inputs": [
        {
          "internalType": "string",
          "name": "_city",
          "type": "string"
        }
      ],
      "name": "removeExpiredProviders",
      "outputs": [],
      "payable": false,
      "stateMutability": "nonpayable",
      "type": "function"
    }
  ],
  "bytecode": "0x608060405234801561001057600080fd5b50620186a060008190555061398c8061002a6000396000f3fe608060405234801561001057600080fd5b50600436106100885760003560e01c8063d6d904981161005b578063d6d9049814610457578063d75586af14610512578063e38bab951461069a578063f0cd5f4c146108bb57610088565b8063015e318e1461008d57806377ea2ccf146102155780639c99ecc61461037e578063b0083d681461039c575b600080fd5b6101fb600480360360a08110156100a357600080fd5b81019080803590602001906401000000008111156100c057600080fd5b8201836020820111156100d257600080fd5b803590602001918460018302840111640100000000831117156100f457600080fd5b91908080601f016020809104026020016040519081016040528093929190818152602001838380828437600081840152601f19601f8201169050808301925050505050505091929192908035906020019064010000000081111561015757600080fd5b82018360208201111561016957600080fd5b8035906020019184600183028401116401000000008311171561018b57600080fd5b91908080601f016020809104026020016040519081016040528093929190818152602001838380828437600081840152601f19601f82011690508083019250505050505050919291929080359060200190929190803590602001909291908035906020019092919050505061098a565b604051808215151515815260200191505060405180910390f35b6102416004803603602081101561022b57600080fd5b8101908080359060200190929190505050611978565b6040518089815260200188815260200180602001806020018773ffffffffffffffffffffffffffffffffffffffff1673ffffffffffffffffffffffffffffffffffffffff168152602001868152602001858152602001848152602001838103835289818151815260200191508051906020019080838360005b838110156102d55780820151818401526020810190506102ba565b50505050905090810190601f1680156103025780820380516001836020036101000a031916815260200191505b50838103825288818151815260200191508051906020019080838360005b8381101561033b578082015181840152602081019050610320565b50505050905090810190601f1680156103685780820380516001836020036101000a031916815260200191505b509a505050505050505050505060405180910390f35b610386611b10565b6040518082815260200191505060405180910390f35b610455600480360360208110156103b257600080fd5b81019080803590602001906401000000008111156103cf57600080fd5b8201836020820111156103e157600080fd5b8035906020019184600183028401116401000000008311171561040357600080fd5b91908080601f016020809104026020016040519081016040528093929190818152602001838380828437600081840152601f19601f820116905080830192505050505050509192919290505050611b16565b005b6105106004803603602081101561046d57600080fd5b810190808035906020019064010000000081111561048a57600080fd5b82018360208201111561049c57600080fd5b803590602001918460018302840111640100000000831117156104be57600080fd5b91908080601f016020809104026020016040519081016040528093929190818152602001838380828437600081840152601f19601f820116905080830192505050505050509192919290505050612011565b005b610680600480360360a081101561052857600080fd5b810190808035906020019064010000000081111561054557600080fd5b82018360208201111561055757600080fd5b8035906020019184600183028401116401000000008311171561057957600080fd5b91908080601f016020809104026020016040519081016040528093929190818152602001838380828437600081840152601f19601f820116905080830192505050505050509192919290803590602001906401000000008111156105dc57600080fd5b8201836020820111156105ee57600080fd5b8035906020019184600183028401116401000000008311171561061057600080fd5b91908080601f016020809104026020016040519081016040528093929190818152602001838380828437600081840152601f19601f820116905080830192505050505050509192919290803590602001909291908035906020019092919080359060200190929190505050612085565b604051808215151515815260200191505060405180910390f35b6106e6600480360360408110156106b057600080fd5b81019080803573ffffffffffffffffffffffffffffffffffffffff16906020019092919080359060200190929190505050612b71565b60405180806020018a73ffffffffffffffffffffffffffffffffffffffff1673ffffffffffffffffffffffffffffffffffffffff168152602001806020018973ffffffffffffffffffffffffffffffffffffffff1673ffffffffffffffffffffffffffffffffffffffff1681526020018060200188815260200187815260200186815260200185815260200184810384528d818151815260200191508051906020019080838360005b838110156107aa57808201518184015260208101905061078f565b50505050905090810190601f1680156107d75780820380516001836020036101000a031916815260200191505b5084810383528b818151815260200191508051906020019080838360005b838110156108105780820151818401526020810190506107f5565b50505050905090810190601f16801561083d5780820380516001836020036101000a031916815260200191505b50848103825289818151815260200191508051906020019080838360005b8381101561087657808201518184015260208101905061085b565b50505050905090810190601f1680156108a35780820380516001836020036101000a031916815260200191505b509c5050505050505050505050505060405180910390f35b610974600480360360208110156108d157600080fd5b81019080803590602001906401000000008111156108ee57600080fd5b82018360208201111561090057600080fd5b8035906020019184600183028401116401000000008311171561092257600080fd5b91908080601f016020809104026020016040519081016040528093929190818152602001838380828437600081840152601f19601f820116905080830192505050505050509192919290505050612de1565b6040518082815260200191505060405180910390f35b6000428211610a01576040517f08c379a000000000000000000000000000000000000000000000000000000000815260040180806020018281038252600c8152602001807f62616420656e642074696d65000000000000000000000000000000000000000081525060200191505060405180910390fd5b818310610a76576040517f08c379a000000000000000000000000000000000000000000000000000000000815260040180806020018281038252600e8152602001807f6261642073746172742074696d6500000000000000000000000000000000000081525060200191505060405180910390fd5b610a7f85611b16565b60006001866040518082805190602001908083835b60208310610ab75780518252602082019150602081019050602083039250610a94565b6001836020036101000a038019825116818451168082178552505050505050905001915050908152602001604051809103902054905060008190506000610afc6137b6565b60026000858152602001908152602001600020604051806101000160405290816000820154815260200160018201548152602001600282018054600181600116156101000203166002900480601f016020809104026020016040519081016040528092919081815260200182805460018160011615610100020316600290048015610bc85780601f10610b9d57610100808354040283529160200191610bc8565b820191906000526020600020905b815481529060010190602001808311610bab57829003601f168201915b50505050508152602001600382018054600181600116156101000203166002900480601f016020809104026020016040519081016040528092919081815260200182805460018160011615610100020316600290048015610c6a5780601f10610c3f57610100808354040283529160200191610c6a565b820191906000526020600020905b815481529060010190602001808311610c4d57829003601f168201915b505050505081526020016004820160009054906101000a900473ffffffffffffffffffffffffffffffffffffffff1673ffffffffffffffffffffffffffffffffffffffff1673ffffffffffffffffffffffffffffffffffffffff16815260200160058201548152602001600682015481526020016007820154815250509050610cf16137b6565b60008b8a8a8a426040516020018086805190602001908083835b60208310610d2e5780518252602082019150602081019050602083039250610d0b565b6001836020036101000a03801982511681845116808217855250505050505090500185815260200184815260200183815260200182815260200195505050505050604051602081830303815290604052805190602001209050610d9c868a8a8660c001518760e00151612e0f565b156110cc57610da96137b6565b604051806101000160405280838152602001856000015181526020018e81526020018d81526020013373ffffffffffffffffffffffffffffffffffffffff1681526020018c81526020018b81526020018a81525090508160018d6040518082805190602001908083835b60208310610e365780518252602082019150602081019050602083039250610e13565b6001836020036101000a038019825116818451168082178552505050505050905001915050908152602001604051809103902081905550806002600084815260200190815260200160002060008201518160000155602082015181600101556040820151816002019080519060200190610eb1929190613817565b506060820151816003019080519060200190610ece929190613817565b5060808201518160040160006101000a81548173ffffffffffffffffffffffffffffffffffffffff021916908373ffffffffffffffffffffffffffffffffffffffff16021790555060a0820151816005015560c0820151816006015560e082015181600701559050507fed2286d267f9bfdeaf05e1ecbd3286dd2a1b01e309d5d095a337a72797794e2e816000015182602001518360400151846060015185608001518660a001518760c001518860e001516040518089815260200188815260200180602001806020018773ffffffffffffffffffffffffffffffffffffffff1673ffffffffffffffffffffffffffffffffffffffff168152602001868152602001858152602001848152602001838103835289818151815260200191508051906020019080838360005b83811015611014578082015181840152602081019050610ff9565b50505050905090810190601f1680156110415780820380516001836020036101000a031916815260200191505b50838103825288818151815260200191508051906020019080838360005b8381101561107a57808201518184015260208101905061105f565b50505050905090810190601f1680156110a75780820380516001836020036101000a031916815260200191505b509a505050505050505050505060405180910390a1600197505050505050505061196f565b5b6001156119645760026000868152602001908152602001600020604051806101000160405290816000820154815260200160018201548152602001600282018054600181600116156101000203166002900480601f0160208091040260200160405190810160405280929190818152602001828054600181600116156101000203166002900480156111a05780601f10611175576101008083540402835291602001916111a0565b820191906000526020600020905b81548152906001019060200180831161118357829003601f168201915b50505050508152602001600382018054600181600116156101000203166002900480601f0160208091040260200160405190810160405280929190818152602001828054600181600116156101000203166002900480156112425780601f1061121757610100808354040283529160200191611242565b820191906000526020600020905b81548152906001019060200180831161122557829003601f168201915b505050505081526020016004820160009054906101000a900473ffffffffffffffffffffffffffffffffffffffff1673ffffffffffffffffffffffffffffffffffffffff1673ffffffffffffffffffffffffffffffffffffffff168152602001600582015481526020016006820154815260200160078201548152505092506113c16040518060400160405280601681526020017f6164642070726f76696465722c2063757272656e743d00000000000000000000815250846040015160026000876020015181526020019081526020016000206002018054600181600116156101000203166002900480601f0160208091040260200160405190810160405280929190818152602001828054600181600116156101000203166002900480156113ad5780601f10611382576101008083540402835291602001916113ad565b820191906000526020600020905b81548152906001019060200180831161139057829003601f168201915b50505050508660c001518760e00151612e42565b8260200151935060026000858152602001908152602001600020604051806101000160405290816000820154815260200160018201548152602001600282018054600181600116156101000203166002900480601f0160208091040260200160405190810160405280929190818152602001828054600181600116156101000203166002900480156114945780601f1061146957610100808354040283529160200191611494565b820191906000526020600020905b81548152906001019060200180831161147757829003601f168201915b50505050508152602001600382018054600181600116156101000203166002900480601f0160208091040260200160405190810160405280929190818152602001828054600181600116156101000203166002900480156115365780601f1061150b57610100808354040283529160200191611536565b820191906000526020600020905b81548152906001019060200180831161151957829003601f168201915b505050505081526020016004820160009054906101000a900473ffffffffffffffffffffffffffffffffffffffff1673ffffffffffffffffffffffffffffffffffffffff1673ffffffffffffffffffffffffffffffffffffffff168152602001600582015481526020016006820154815260200160078201548152505091506115ca848a8a8560c001518660e00151612e0f565b1561195c578083602001818152505082600260008781526020019081526020016000206000820151816000015560208201518160010155604082015181600201908051906020019061161d929190613817565b50606082015181600301908051906020019061163a929190613817565b5060808201518160040160006101000a81548173ffffffffffffffffffffffffffffffffffffffff021916908373ffffffffffffffffffffffffffffffffffffffff16021790555060a0820151816005015560c0820151816006015560e082015181600701559050506116ab6137b6565b6040518061010001604052808381526020018681526020018e81526020018d81526020013373ffffffffffffffffffffffffffffffffffffffff1681526020018c81526020018b81526020018a8152509050806002600084815260200190815260200160002060008201518160000155602082015181600101556040820151816002019080519060200190611741929190613817565b50606082015181600301908051906020019061175e929190613817565b5060808201518160040160006101000a81548173ffffffffffffffffffffffffffffffffffffffff021916908373ffffffffffffffffffffffffffffffffffffffff16021790555060a0820151816005015560c0820151816006015560e082015181600701559050507fed2286d267f9bfdeaf05e1ecbd3286dd2a1b01e309d5d095a337a72797794e2e816000015182602001518360400151846060015185608001518660a001518760c001518860e001516040518089815260200188815260200180602001806020018773ffffffffffffffffffffffffffffffffffffffff1673ffffffffffffffffffffffffffffffffffffffff168152602001868152602001858152602001848152602001838103835289818151815260200191508051906020019080838360005b838110156118a4578082015181840152602081019050611889565b50505050905090810190601f1680156118d15780820380516001836020036101000a031916815260200191505b50838103825288818151815260200191508051906020019080838360005b8381101561190a5780820151818401526020810190506118ef565b50505050905090810190601f1680156119375780820380516001836020036101000a031916815260200191505b509a505050505050505050505060405180910390a1600197505050505050505061196f565b8394506110cd565b600096505050505050505b95945050505050565b6002602052806000526040600020600091509050806000015490806001015490806002018054600181600116156101000203166002900480601f016020809104026020016040519081016040528092919081815260200182805460018160011615610100020316600290048015611a305780601f10611a0557610100808354040283529160200191611a30565b820191906000526020600020905b815481529060010190602001808311611a1357829003601f168201915b505050505090806003018054600181600116156101000203166002900480601f016020809104026020016040519081016040528092919081815260200182805460018160011615610100020316600290048015611ace5780601f10611aa357610100808354040283529160200191611ace565b820191906000526020600020905b815481529060010190602001808311611ab157829003601f168201915b5050505050908060040160009054906101000a900473ffffffffffffffffffffffffffffffffffffffff16908060050154908060060154908060070154905088565b60005481565b60006001826040518082805190602001908083835b60208310611b4e5780518252602082019150602081019050602083039250611b2b565b6001836020036101000a03801982511681845116808217855250505050505090500191505090815260200160405180910390205490506000819050611b916137b6565b60026000848152602001908152602001600020604051806101000160405290816000820154815260200160018201548152602001600282018054600181600116156101000203166002900480601f016020809104026020016040519081016040528092919081815260200182805460018160011615610100020316600290048015611c5d5780601f10611c3257610100808354040283529160200191611c5d565b820191906000526020600020905b815481529060010190602001808311611c4057829003601f168201915b50505050508152602001600382018054600181600116156101000203166002900480601f016020809104026020016040519081016040528092919081815260200182805460018160011615610100020316600290048015611cff5780601f10611cd457610100808354040283529160200191611cff565b820191906000526020600020905b815481529060010190602001808311611ce257829003601f168201915b505050505081526020016004820160009054906101000a900473ffffffffffffffffffffffffffffffffffffffff1673ffffffffffffffffffffffffffffffffffffffff1673ffffffffffffffffffffffffffffffffffffffff168152602001600582015481526020016006820154815260200160078201548152505090505b600115611f9d5760026000838152602001908152602001600020604051806101000160405290816000820154815260200160018201548152602001600282018054600181600116156101000203166002900480601f016020809104026020016040519081016040528092919081815260200182805460018160011615610100020316600290048015611e525780601f10611e2757610100808354040283529160200191611e52565b820191906000526020600020905b815481529060010190602001808311611e3557829003601f168201915b50505050508152602001600382018054600181600116156101000203166002900480601f016020809104026020016040519081016040528092919081815260200182805460018160011615610100020316600290048015611ef45780601f10611ec957610100808354040283529160200191611ef4565b820191906000526020600020905b815481529060010190602001808311611ed757829003601f168201915b505050505081526020016004820160009054906101000a900473ffffffffffffffffffffffffffffffffffffffff1673ffffffffffffffffffffffffffffffffffffffff1673ffffffffffffffffffffffffffffffffffffffff168152602001600582015481526020016006820154815260200160078201548152505090506000801b821480611f875750428160e00151115b15611f9157611f9d565b80602001519150611d7f565b816001856040518082805190602001908083835b60208310611fd45780518252602082019150602081019050602083039250611fb1565b6001836020036101000a03801982511681845116808217855250505050505090500191505090815260200160405180910390208190555050505050565b6000801b6001826040518082805190602001908083835b6020831061204b5780518252602082019150602081019050602083039250612028565b6001836020036101000a03801982511681845116808217855250505050505090500191505090815260200160405180910390208190555050565b60008160005484420101106120e5576040517f08c379a00000000000000000000000000000000000000000000000000000000081526004018080602001828103825260238152602001806139356023913960400191505060405180910390fd5b6120ee85611b16565b60006001866040518082805190602001908083835b602083106121265780518252602082019150602081019050602083039250612103565b6001836020036101000a038019825116818451168082178552505050505050905001915050908152602001604051809103902054905060008190506121696137b6565b5b600115612b60576000801b82141561218157612b60565b60026000838152602001908152602001600020604051806101000160405290816000820154815260200160018201548152602001600282018054600181600116156101000203166002900480601f01602080910402602001604051908101604052809291908181526020018280546001816001161561010002031660029004801561224d5780601f106122225761010080835404028352916020019161224d565b820191906000526020600020905b81548152906001019060200180831161223057829003601f168201915b50505050508152602001600382018054600181600116156101000203166002900480601f0160208091040260200160405190810160405280929190818152602001828054600181600116156101000203166002900480156122ef5780601f106122c4576101008083540402835291602001916122ef565b820191906000526020600020905b8154815290600101906020018083116122d257829003601f168201915b505050505081526020016004820160009054906101000a900473ffffffffffffffffffffffffffffffffffffffff1673ffffffffffffffffffffffffffffffffffffffff1673ffffffffffffffffffffffffffffffffffffffff1681526020016005820154815260200160068201548152602001600782015481525050905061246e6040518060400160405280601681526020017f61646420636f6e73756d65722c2063757272656e743d00000000000000000000815250826040015160026000856020015181526020019081526020016000206002018054600181600116156101000203166002900480601f01602080910402602001604051908101604052809291908181526020018280546001816001161561010002031660029004801561245a5780601f1061242f5761010080835404028352916020019161245a565b820191906000526020600020905b81548152906001019060200180831161243d57829003601f168201915b50505050508460c001518560e00151612e42565b868160a001511015612486578060200151915061216a565b8060e00151866000548360c0015101011015612b54576124a4613897565b60405180610120016040528083604001518152602001836080015173ffffffffffffffffffffffffffffffffffffffff1681526020018b81526020013373ffffffffffffffffffffffffffffffffffffffff1681526020018a81526020018981526020014281526020018360c00151815260200188815250905060036000836080015173ffffffffffffffffffffffffffffffffffffffff1673ffffffffffffffffffffffffffffffffffffffff168152602001908152602001600020819080600181540180825580915050906001820390600052602060002090600902016000909192909190915060008201518160000190805190602001906125a9929190613817565b5060208201518160010160006101000a81548173ffffffffffffffffffffffffffffffffffffffff021916908373ffffffffffffffffffffffffffffffffffffffff160217905550604082015181600201908051906020019061260d929190613817565b5060608201518160030160006101000a81548173ffffffffffffffffffffffffffffffffffffffff021916908373ffffffffffffffffffffffffffffffffffffffff1602179055506080820151816004019080519060200190612671929190613817565b5060a0820151816005015560c0820151816006015560e082015181600701556101008201518160080155505050600360003373ffffffffffffffffffffffffffffffffffffffff1673ffffffffffffffffffffffffffffffffffffffff16815260200190815260200160002081908060018154018082558091505090600182039060005260206000209060090201600090919290919091506000820151816000019080519060200190612725929190613817565b5060208201518160010160006101000a81548173ffffffffffffffffffffffffffffffffffffffff021916908373ffffffffffffffffffffffffffffffffffffffff1602179055506040820151816002019080519060200190612789929190613817565b5060608201518160030160006101000a81548173ffffffffffffffffffffffffffffffffffffffff021916908373ffffffffffffffffffffffffffffffffffffffff16021790555060808201518160040190805190602001906127ed929190613817565b5060a0820151816005015560c0820151816006015560e0820151816007015561010082015181600801555050507fcc4819d655ab04107a1a78c95163ab22e547cb8ddc459a40ba078687b6894bc2826040015183608001518c338d8d428960c001518f60405180806020018a73ffffffffffffffffffffffffffffffffffffffff1673ffffffffffffffffffffffffffffffffffffffff168152602001806020018973ffffffffffffffffffffffffffffffffffffffff1673ffffffffffffffffffffffffffffffffffffffff1681526020018060200188815260200187815260200186815260200185815260200184810384528d818151815260200191508051906020019080838360005b838110156129145780820151818401526020810190506128f9565b50505050905090810190601f1680156129415780820380516001836020036101000a031916815260200191505b5084810383528b818151815260200191508051906020019080838360005b8381101561297a57808201518184015260208101905061295f565b50505050905090810190601f1680156129a75780820380516001836020036101000a031916815260200191505b50848103825289818151815260200191508051906020019080838360005b838110156129e05780820151818401526020810190506129c5565b50505050905090810190601f168015612a0d5780820380516001836020036101000a031916815260200191505b509c5050505050505050505050505060405180910390a186600054018260c001818151019150818152505081600260008460000151815260200190815260200160002060008201518160000155602082015181600101556040820151816002019080519060200190612a80929190613817565b506060820151816003019080519060200190612a9d929190613817565b5060808201518160040160006101000a81548173ffffffffffffffffffffffffffffffffffffffff021916908373ffffffffffffffffffffffffffffffffffffffff16021790555060a0820151816005015560c0820151816006015560e08201518160070155905050612b14898360000151612fcf565b8160e001518260c001511015612b4757612b45826040015183606001518460a001518560c001518660e0015161098a565b505b6001945050505050612b68565b8060200151915061216a565b600093505050505b95945050505050565b60036020528160005260406000208181548110612b8a57fe5b906000526020600020906009020160009150915050806000018054600181600116156101000203166002900480601f016020809104026020016040519081016040528092919081815260200182805460018160011615610100020316600290048015612c375780601f10612c0c57610100808354040283529160200191612c37565b820191906000526020600020905b815481529060010190602001808311612c1a57829003601f168201915b5050505050908060010160009054906101000a900473ffffffffffffffffffffffffffffffffffffffff1690806002018054600181600116156101000203166002900480601f016020809104026020016040519081016040528092919081815260200182805460018160011615610100020316600290048015612cfb5780601f10612cd057610100808354040283529160200191612cfb565b820191906000526020600020905b815481529060010190602001808311612cde57829003601f168201915b5050505050908060030160009054906101000a900473ffffffffffffffffffffffffffffffffffffffff1690806004018054600181600116156101000203166002900480601f016020809104026020016040519081016040528092919081815260200182805460018160011615610100020316600290048015612dbf5780601f10612d9457610100808354040283529160200191612dbf565b820191906000526020600020905b815481529060010190602001808311612da257829003601f168201915b5050505050908060050154908060060154908060070154908060080154905089565b6001818051602081018201805184825260208301602085012081835280955050505050506000915090505481565b60008060001b861480612e2157508184105b80612e3757508184148015612e365750828511155b5b905095945050505050565b7f488d79b9c71de70c64a1e2f4820e72c7bc92ec1875b1c3f2614b7a4e3c09e000858585858560405180806020018060200180602001868152602001858152602001848103845289818151815260200191508051906020019080838360005b83811015612ebc578082015181840152602081019050612ea1565b50505050905090810190601f168015612ee95780820380516001836020036101000a031916815260200191505b50848103835288818151815260200191508051906020019080838360005b83811015612f22578082015181840152602081019050612f07565b50505050905090810190601f168015612f4f5780820380516001836020036101000a031916815260200191505b50848103825287818151815260200191508051906020019080838360005b83811015612f88578082015181840152602081019050612f6d565b50505050905090810190601f168015612fb55780820380516001836020036101000a031916815260200191505b509850505050505050505060405180910390a15050505050565b60006001836040518082805190602001908083835b602083106130075780518252602082019150602081019050602083039250612fe4565b6001836020036101000a03801982511681845116808217855250505050505090500191505090815260200160405180910390205490506000801b81141561304e57506137b2565b600081905061305b6137b6565b60026000848152602001908152602001600020604051806101000160405290816000820154815260200160018201548152602001600282018054600181600116156101000203166002900480601f0160208091040260200160405190810160405280929190818152602001828054600181600116156101000203166002900480156131275780601f106130fc57610100808354040283529160200191613127565b820191906000526020600020905b81548152906001019060200180831161310a57829003601f168201915b50505050508152602001600382018054600181600116156101000203166002900480601f0160208091040260200160405190810160405280929190818152602001828054600181600116156101000203166002900480156131c95780601f1061319e576101008083540402835291602001916131c9565b820191906000526020600020905b8154815290600101906020018083116131ac57829003601f168201915b505050505081526020016004820160009054906101000a900473ffffffffffffffffffffffffffffffffffffffff1673ffffffffffffffffffffffffffffffffffffffff1673ffffffffffffffffffffffffffffffffffffffff168152602001600582015481526020016006820154815260200160078201548152505090506132506137b6565b60026000868152602001908152602001600020604051806101000160405290816000820154815260200160018201548152602001600282018054600181600116156101000203166002900480601f01602080910402602001604051908101604052809291908181526020018280546001816001161561010002031660029004801561331c5780601f106132f15761010080835404028352916020019161331c565b820191906000526020600020905b8154815290600101906020018083116132ff57829003601f168201915b50505050508152602001600382018054600181600116156101000203166002900480601f0160208091040260200160405190810160405280929190818152602001828054600181600116156101000203166002900480156133be5780601f10613393576101008083540402835291602001916133be565b820191906000526020600020905b8154815290600101906020018083116133a157829003601f168201915b505050505081526020016004820160009054906101000a900473ffffffffffffffffffffffffffffffffffffffff1673ffffffffffffffffffffffffffffffffffffffff1673ffffffffffffffffffffffffffffffffffffffff16815260200160058201548152602001600682015481526020016007820154815250509050848414156134c05781602001516001876040518082805190602001908083835b60208310613480578051825260208201915060208101905060208303925061345d565b6001836020036101000a038019825116818451168082178552505050505050905001915050908152602001604051809103902081905550505050506137b2565b5b6000801b83146137ad5760026000848152602001908152602001600020604051806101000160405290816000820154815260200160018201548152602001600282018054600181600116156101000203166002900480601f0160208091040260200160405190810160405280929190818152602001828054600181600116156101000203166002900480156135975780601f1061356c57610100808354040283529160200191613597565b820191906000526020600020905b81548152906001019060200180831161357a57829003601f168201915b50505050508152602001600382018054600181600116156101000203166002900480601f0160208091040260200160405190810160405280929190818152602001828054600181600116156101000203166002900480156136395780601f1061360e57610100808354040283529160200191613639565b820191906000526020600020905b81548152906001019060200180831161361c57829003601f168201915b505050505081526020016004820160009054906101000a900473ffffffffffffffffffffffffffffffffffffffff1673ffffffffffffffffffffffffffffffffffffffff1673ffffffffffffffffffffffffffffffffffffffff1681526020016005820154815260200160068201548152602001600782015481525050915084826020015114156137a1578060200151826020018181525050816002600085815260200190815260200160002060008201518160000155602082015181600101556040820151816002019080519060200190613716929190613817565b506060820151816003019080519060200190613733929190613817565b5060808201518160040160006101000a81548173ffffffffffffffffffffffffffffffffffffffff021916908373ffffffffffffffffffffffffffffffffffffffff16021790555060a0820151816005015560c0820151816006015560e082015181600701559050506137ad565b816020015192506134c1565b505050505b5050565b60405180610100016040528060008019168152602001600080191681526020016060815260200160608152602001600073ffffffffffffffffffffffffffffffffffffffff1681526020016000815260200160008152602001600081525090565b828054600181600116156101000203166002900490600052602060002090601f016020900481019282601f1061385857805160ff1916838001178555613886565b82800160010185558215613886579182015b8281111561388557825182559160200191906001019061386a565b5b509050613893919061390f565b5090565b60405180610120016040528060608152602001600073ffffffffffffffffffffffffffffffffffffffff16815260200160608152602001600073ffffffffffffffffffffffffffffffffffffffff16815260200160608152602001600081526020016000815260200160008152602001600081525090565b61393191905b8082111561392d576000816000905550600101613915565b5090565b9056fe6e6f7420656e6f7567682074696d6520746f20636f6e73756d65207265736f75726365a265627a7a723158202ef1ec9b708a332b4923e260c91c4004b4e36170222c81ef9302de0afed36b7464736f6c634300050c0032",
  "source": "pragma solidity 0.5.12;\n\nimport \"./logger.sol\";\n\ncontract ResourceSharing is Logger {\n\n    struct Provider {\n        bytes32 id;\n        bytes32 next;\n\n        string name;\n        string city;\n        address addr;\n        uint target;\n        uint start;\n        uint end;\n    }\n\n    struct Consumer {\n        bytes32 id;\n        bytes32 next;\n\n        string name;\n        string city;\n        address addr;\n        uint budget;\n        uint duration;\n        uint deadline;\n    }\n\n    struct Matching {\n        string providerName;\n        address providerAddr;\n        string consumerName;\n        address consumerAddr;\n        string city;\n        uint256 price;\n        uint matchedTime;\n        uint start;\n        uint duration;\n    }\n\n    uint256 public maxMatchInterval;\n    mapping (string => bytes32) public headList;\n    mapping (bytes32 => Provider) public providerList;\n    mapping (address => Matching[]) public matchings;\n\n    event AddProvider(bytes32 id, bytes32 next, string _name, string _city, address _addr, uint _target, uint _start, uint _end);\n    event Matched(string providerName, address providerAddr, string consumerName, address consumerAddr, string _city, uint256 price, uint time, uint start, uint duration);\n\n    constructor() public {\n        // 100 seconds\n        maxMatchInterval = 100 * 1000;\n    }\n\n    // ALERT: delete this method before deploying contract on the main chain!!!!!\n    function reset(string memory _city) public {\n        headList[_city] = 0x0;\n    }\n\n    function addProvider(string memory _name, string memory _city, uint _target, uint _start, uint _end) public returns (bool) {\n        require(_end > now, \"bad end time\");\n        require(_start < _end, \"bad start time\");\n\n        // remove expired providers\n        removeExpiredProviders(_city);\n\n        bytes32 head = headList[_city];\n        bytes32 curBytes = head;\n        bytes32 nextBytes;\n        Provider memory current = providerList[head];\n        Provider memory next;\n        bytes32 id = keccak256(abi.encodePacked(_name, _target, _start, _end, now));\n\n        // Do insertion at head when (1) empty provider list; (2) Or, _end < first end; (3) Or, _end == firest end && _start >= first start\n        if (isBetweenCurrentAndNext(head, _start, _end, current.start, current.end)) {\n            Provider memory provider = Provider(id, current.id, _name, _city, msg.sender, _target, _start, _end);\n            headList[_city] = id;\n            providerList[id] = provider;\n            emit AddProvider(provider.id, provider.next, provider.name, provider.city, provider.addr, provider.target, provider.start, provider.end);\n            return true;\n        }\n\n        // loop\n        while (true) {\n            current = providerList[curBytes];\n            logProvider(\"add provider, current=\", current.name, providerList[current.next].name, current.start, current.end);\n            nextBytes = current.next;\n            next = providerList[nextBytes];\n            if (isBetweenCurrentAndNext(nextBytes, _start, _end, next.start, next.end)) {\n                // Do insertion when (1) reached the end of the linked list; (2) Or, insert between current and next\n                current.next = id;\n                providerList[curBytes] = current;\n                Provider memory provider = Provider(id, nextBytes, _name, _city, msg.sender, _target, _start, _end);\n                providerList[id] = provider;\n                emit AddProvider(provider.id, provider.next, provider.name, provider.city, provider.addr, provider.target, provider.start, provider.end);\n                return true;\n            }\n            curBytes = nextBytes;\n        }\n        return false;\n    }\n\n    function isBetweenCurrentAndNext(bytes32 _nextBytes, uint _start, uint _end, uint _nextStart, uint _nextEnd) private returns (bool) {\n        return _nextBytes == 0x0 || _end < _nextEnd || (_end == _nextEnd && _start <= _nextStart);\n    }\n\n    function addConsumer(string memory _name, string memory _city, uint _budget, uint _duration, uint _deadline) public returns (bool) {\n        require(now + _duration + maxMatchInterval < _deadline, \"not enough time to consume resource\");\n\n        // remove expired providers\n        removeExpiredProviders(_city);\n\n        bytes32 head = headList[_city];\n        bytes32 curBytes = head;\n        Provider memory provider;\n        while (true) {\n            if (curBytes == 0x0) {\n                break;\n            }\n            provider = providerList[curBytes];\n            logProvider(\"add consumer, current=\", provider.name, providerList[provider.next].name, provider.start, provider.end);\n            if (provider.target < _budget) {\n                curBytes = provider.next;\n                continue;\n            }\n            if (provider.start + maxMatchInterval + _duration < provider.end ) {\n                // matched\n                Matching memory m = Matching(provider.name, provider.addr, _name, msg.sender, _city, _budget, now, provider.start, _duration);\n                matchings[provider.addr].push(m);\n                matchings[msg.sender].push(m);\n                emit Matched(provider.name, provider.addr, _name, msg.sender, _city, _budget, now, provider.start, _duration);\n\n                // increase provider's start\n                // TODO: if new start > end, remove provider\n                provider.start += maxMatchInterval + _duration;\n                providerList[provider.id] = provider;\n\n                // TODO: do deletion and insertion here to save gas\n                removeProvider(_city, provider.id);\n                if (provider.start < provider.end) {\n                    addProvider(provider.name, provider.city, provider.target, provider.start, provider.end);\n                }\n                return true;\n            } else {\n                curBytes = provider.next;\n            }\n        }\n        return false;\n    }\n\n    function removeExpiredProviders(string memory _city) public {\n        bytes32 head = headList[_city];\n        bytes32 curBytes = head;\n        Provider memory current = providerList[head];\n\n        while (true) {\n            current = providerList[curBytes];\n            if (curBytes == 0x0 || current.end > now) {\n                break;\n            }\n            curBytes = current.next;\n        }\n        headList[_city] = curBytes;\n    }\n\n    function removeProvider(string memory _city, bytes32 _id) private {\n        bytes32 head = headList[_city];\n        if (head == 0x0) {\n            return;\n        }\n        bytes32 curBytes = head;\n        Provider memory current = providerList[head];\n        Provider memory target = providerList[_id];\n\n        if (head == _id) {\n            headList[_city] = current.next;\n            return;\n        }\n\n        while (curBytes != 0x0) {\n            current = providerList[curBytes];\n            if (current.next == _id) {\n                current.next = target.next;\n                providerList[curBytes] = current;\n                break;\n            }\n            curBytes = current.next;\n        }\n    }\n}\n\n",
  "sourcePath": "/Users/charlesge/charles/git/smart-contract-resource-sharing/contracts/resource_sharing.sol",
  "compiler": {
    "name": "solc",
    "version": "0.5.12+commit.7709ece9.Emscripten.clang"
  },
  "schemaVersion": "3.0.20",
  "updatedAt": "2020-01-12T05:01:34.451Z",
  "devdoc": {
    "methods": {}
  },
  "userdoc": {
    "methods": {}
  }
}