{
  "contractName": "ResourceSharing",
  "abi": [
    {
      "inputs": [],
      "payable": false,
      "stateMutability": "nonpayable",
      "type": "constructor"
    },
    {
      "anonymous": false,
      "inputs": [
        {
          "indexed": false,
          "internalType": "bytes32",
          "name": "head",
          "type": "bytes32"
        },
        {
          "indexed": false,
          "internalType": "uint256",
          "name": "number",
          "type": "uint256"
        },
        {
          "indexed": false,
          "internalType": "string",
          "name": "name",
          "type": "string"
        },
        {
          "indexed": false,
          "internalType": "bytes32",
          "name": "next",
          "type": "bytes32"
        }
      ],
      "name": "AddEntry",
      "type": "event"
    },
    {
      "constant": true,
      "inputs": [],
      "name": "head",
      "outputs": [
        {
          "internalType": "bytes32",
          "name": "",
          "type": "bytes32"
        }
      ],
      "payable": false,
      "stateMutability": "view",
      "type": "function"
    },
    {
      "constant": true,
      "inputs": [],
      "name": "length",
      "outputs": [
        {
          "internalType": "uint256",
          "name": "",
          "type": "uint256"
        }
      ],
      "payable": false,
      "stateMutability": "view",
      "type": "function"
    },
    {
      "constant": true,
      "inputs": [
        {
          "internalType": "bytes32",
          "name": "",
          "type": "bytes32"
        }
      ],
      "name": "providerList",
      "outputs": [
        {
          "internalType": "bytes32",
          "name": "id",
          "type": "bytes32"
        },
        {
          "internalType": "bytes32",
          "name": "next",
          "type": "bytes32"
        },
        {
          "internalType": "string",
          "name": "name",
          "type": "string"
        },
        {
          "internalType": "uint256",
          "name": "target",
          "type": "uint256"
        },
        {
          "internalType": "uint256",
          "name": "start",
          "type": "uint256"
        },
        {
          "internalType": "uint256",
          "name": "end",
          "type": "uint256"
        }
      ],
      "payable": false,
      "stateMutability": "view",
      "type": "function"
    },
    {
      "constant": false,
      "inputs": [],
      "name": "test",
      "outputs": [
        {
          "internalType": "bool",
          "name": "",
          "type": "bool"
        }
      ],
      "payable": false,
      "stateMutability": "nonpayable",
      "type": "function"
    }
  ],
  "bytecode": "0x60806040526000805534801561001457600080fd5b5061029d806100246000396000f3fe608060405234801561001057600080fd5b506004361061004c5760003560e01c80631f7b6d321461005157806377ea2ccf1461006f5780638f7dcfa314610139578063f8a8fd6d14610157575b600080fd5b610059610179565b6040518082815260200191505060405180910390f35b61009b6004803603602081101561008557600080fd5b810190808035906020019092919050505061017f565b6040518087815260200186815260200180602001858152602001848152602001838152602001828103825286818151815260200191508051906020019080838360005b838110156100f95780820151818401526020810190506100de565b50505050905090810190601f1680156101265780820380516001836020036101000a031916815260200191505b5097505050505050505060405180910390f35b610141610253565b6040518082815260200191505060405180910390f35b61015f610259565b604051808215151515815260200191505060405180910390f35b60005481565b6002602052806000526040600020600091509050806000015490806001015490806002018054600181600116156101000203166002900480601f0160208091040260200160405190810160405280929190818152602001828054600181600116156101000203166002900480156102375780601f1061020c57610100808354040283529160200191610237565b820191906000526020600020905b81548152906001019060200180831161021a57829003601f168201915b5050505050908060030154908060040154908060050154905086565b60015481565b60008060001b6001541490509056fea265627a7a72315820345263c423d8d13de57b073464fdb0f300e5c187b0ffd26a6b69bb37dba66eba64736f6c634300050c0032",
  "source": "pragma solidity 0.5.12;\n\nimport \"./linked_list.sol\";\n\ncontract ResourceSharing {\n    event AddEntry(bytes32 head,uint number, string name,bytes32 next);\n\n    uint public length = 0;//also used as nonce\n\n    struct Provider{\n        bytes32 id;\n        bytes32 next;\n\n        string name;\n        uint target;\n        uint start;\n        uint end;\n    }\n\n    bytes32 public head;\n    mapping (bytes32 => Provider) public providerList;\n\n    constructor() public {\n        \n    }\n\n    function test() public returns (bool) {\n        return head == 0x0;\n    }\n}\n\n",
  "sourcePath": "/Users/charlesge/charles/git/smart-contract-resource-sharing/contracts/resource_sharing.sol",
  "compiler": {
    "name": "solc",
    "version": "0.5.12+commit.7709ece9.Emscripten.clang"
  },
  "schemaVersion": "3.0.20",
  "updatedAt": "2020-01-03T14:46:03.034Z",
  "networkType": "ethereum",
  "devdoc": {
    "methods": {}
  },
  "userdoc": {
    "methods": {}
  }
}